:020000040800F2
:100000000000062069290008951E0008991E0008B6
:100010009D1E0008A11E0008A31E0008000000008D
:10002000000000000000000000000000D12D0008CA
:10003000A71E000800000000712E0008D52E000841
:10004000B1290008B1290008B1290008B129000828
:10005000B1290008B1290008B1290008B129000818
:10006000B1290008B1290008B1290008B129000808
:10007000B1290008B1290008B1290008B1290008F8
:10008000B1290008B1290008B1290008B1290008E8
:10009000B1290008B1290008B1290008B1290008D8
:1000A000B1290008D1210008B1290008B1290008B0
:1000B000B1290008B1290008B1290008B1290008B8
:1000C000B1290008B1290008B1290008B1290008A8
:1000D000B1290008B1290008B1290008B129000898
:1000E000B1290008B1290008B1290008B129000888
:1000F000B1290008B1290008B1290008B129000878
:10010000B1290008B1290008B1290008B129000867
:10011000B1290008B1290008B1290008B129000857
:10012000AD210008B1290008B1290008B129000853
:10013000B1290008B1290008B1290008B129000837
:10014000B1290008B1290008B1290008B129000827
:10015000B1290008B129000800000000B1290008F9
:10016000B1290008B12900080000000000000000CB
:10017000B1290008B1290008B129000800000000D9
:1001800000000000B1290008B1290008B1290008C9
:10019000B12900080000000000000000000000007D
:1001A000000000000000000000000000B12900086D
:1001B000B129000800000000B1290008000000007B
:1001C000000000000000000000000000000000002F
:1001D0000000000000000000B1290008B12900085B
:1001E000B1290008B1290008B1290008B129000887
:1001F000B1290008B1290008B1290008B129000877
:0C020000B1290008B1290008B12900084C
:1002100010B5054C237833B9044B13B10448AFF340
:1002200000800123237010BDE801002000000000C1
:100230002C6D000808B5034B1BB103490348AFF30D
:10024000008008BD00000000EC0100202C6D0008BB
:1002500053B94AB9002908BF00281CBF4FF0FF312D
:100260004FF0FF3001F0DEB8ADF1080C6DE904CEBF
:1002700000F006F8DDF804E0DDE9022304B0704781
:100280002DE9F047089D04468E46002B4DD18A4249
:10029000944669D9B2FA82F252B101FA02F3C2F17C
:1002A000200120FA01F10CFA02FC41EA030E94400D
:1002B0004FEA1C48210CBEFBF8F61FFA8CF708FB2E
:1002C00016E341EA034306FB07F199420AD91CEB06
:1002D000030306F1FF3080F01F81994240F21C8138
:1002E000023E63445B1AA4B2B3FBF8F008FB103380
:1002F00044EA034400FB07F7A7420AD91CEB0404B5
:1003000000F1FF3380F00A81A74240F20781644484
:10031000023840EA0640E41B00261DB1D440002309
:10032000C5E900433146BDE8F0878B4209D9002D6D
:1003300000F0EF800026C5E9000130463146BDE8F7
:10034000F087B3FA83F6002E4AD18B4202D3824261
:1003500000F2F980841A61EB030301209E46002D10
:10036000E0D0C5E9004EDDE702B9FFDEB2FA82F265
:10037000002A40F09280A1EB0C014FEA1C471FFAC3
:100380008CFE0126200CB1FBF7F307FB131140EAAA
:1003900001410EFB03F0884208D91CEB010103F177
:1003A000FF3802D2884200F2CB804346091AA4B239
:1003B000B1FBF7F007FB101144EA01440EFB00FE0D
:1003C000A64508D91CEB040400F1FF3102D2A64572
:1003D00000F2BB800846A4EB0E0440EA03409CE711
:1003E000C6F12007B34022FA07FC4CEA030C20FABE
:1003F00007F401FA06F31C43F9404FEA1C4900FADE
:1004000006F3B1FBF9F8200C1FFA8CFE09FB18115A
:1004100040EA014108FB0EF0884202FA06F20BD9CD
:100420001CEB010108F1FF3A80F08880884240F21D
:100430008580A8F102086144091AA4B2B1FBF9F061
:1004400009FB101144EA014100FB0EFE8E4508D95C
:100450001CEB010100F1FF346CD28E456AD90238E1
:10046000614440EA0840A0FB0294A1EB0E01A142C6
:10047000C846A64656D353D05DB1B3EB080261EB34
:100480000E0101FA07F722FA06F3F1401F43C5E90E
:10049000007100263146BDE8F087C2F12003D84044
:1004A0000CFA02FC21FA03F3914001434FEA1C4786
:1004B0001FFA8CFEB3FBF7F007FB10360B0C43EA78
:1004C000064300FB0EF69E4204FA02F408D91CEB28
:1004D000030300F1FF382FD29E422DD90238634426
:1004E0009B1B89B2B3FBF7F607FB163341EA0341C6
:1004F00006FB0EF38B4208D91CEB010106F1FF3815
:1005000016D28B4214D9023E6144C91A46EA00460B
:1005100038E72E46284605E70646E3E61846F8E69D
:100520004B45A9D2B9EB020864EB0C0E0138A3E7E6
:100530004646EAE7204694E74046D1E7D0467BE7C7
:10054000023B614432E7304609E76444023842E73F
:1005500003685A004CBF43F0004323F000431844A3
:10056000704700BF2DE9F84329B34F1E04461546D6
:100570003E464FF0000808EB060101EBD17149102F
:1005800004EBC1094846FFF7E3FF0346C800083003
:100590008F42204409D0AB4209D8FFF7D9FF013878
:1005A000A8420AD201F10108E5E7AB4205D9884526
:1005B00001D04E1EDFE74FF000094846BDE8F88342
:1005C000012807D0022807D0044B00280CBF18468A
:1005D000002070470248704702487047990C000895
:1005E0009D0C0008A10C000830B5234B83B00446D5
:1005F0008D1E3BB301A92846AFF30080E8B10199F5
:100600002A46FFF7AFFF0146B8B1FFF7A1FF4B68DD
:10061000A064012B2CD0002B01F1040024DBFFF798
:1006200097FF0023C4E913030368002B11DBFFF7D6
:100630008FFF2061002003B030BD0023092023611B
:1006400003B030BD0D4B0E49C91AC91018460191AF
:10065000D6E7C3F30360FFF7B3FF0028206114BFA0
:100660000020092003B030BD0123C4E91303DBE7F8
:10067000002323610520DEE700000000DC71000894
:10068000FC7200080368DA0710B5044606D49B071D
:1006900000F1480009D500F05BFC2368590709D533
:1006A0001A070ED5DB0613D510BD00F049FC2368F0
:1006B0005907F5D404F1D00000F052FC23681A0762
:1006C000F0D404F5A87000F053FC2368DB06EBD4EB
:1006D00004F5E870BDE8104000F08EBC09207047BA
:1006E0000346006800B11844704700BF704700BF60
:1006F00070B504460E46316C2046FFF775FF05467F
:1007000088B9326C626123693246214601209847DC
:100710000828F0D0072806D12846316CFFF7E6FFFD
:10072000301D00F001FC03F06FFD00BF2DE9F04724
:100730000D1DD0F80C80D0F81890074614460FCD48
:10074000ADF5727D0DF10C0CACE80F000FCDACE8EF
:100750000F000FCDACE80F0095E80F0002AE4FF090
:10076000000E8CE80F00C6F800E020E0336C7B61DF
:100770004FF4F07231467AA803F072FD3B697AAA11
:10078000394650469847889B73642146CDE90069F5
:1007900005463B463A460120C0470446E0B94FF4BF
:1007A000F0727AA9304603F05BFD082D1AD1316C46
:1007B0003846FFF719FF09345FFA84FA0546002826
:1007C000D4D0B36B73643A46CDE900693B464AF036
:1007D00010010120C04700B1092528460DF5727DA2
:1007E000BDE8F087072DF7D12046316CFFF77EFF7B
:1007F00003A800F099FB00BF406C7047F0B5CB6BCD
:100800000B6401F1040C0E460546BCE80F00F9B07C
:1008100001AC0FC4BCE80F000FC4BCE80F000FC44C
:100820009CE80F004FF0FF3784E80F00009706E0C8
:100830002B696A46294698470828044608D110992A
:100840002846FFF7D1FE0028F2D0092079B0F0BD8C
:100850006846FFF717FF062CF7D131462846FFF709
:1008600047FF00BFC160D96B82611964002219463D
:100870005CE700BF70B5C66843690B64AEB9036935
:100880000A4604460D46014602209847072805D02F
:1008900008280FD129462046FFF72AFF3046296C49
:1008A000FFF724FF281D00F03FFB0122FFF73EFF6A
:1008B00003F0AAFC03F0A8FCC2681AB1CA6B0A6470
:1008C000002233E79AE700BF704700BF8368014604
:1008D0000BB1012018477047012912D009D873B90C
:1008E0000F2A0CD800EB820218465368009A136056
:1008F00070470339012994BF01200220704702206C
:1009000070470846704700BF00B585B00A4600230F
:1009100003A900911946FFF7DFFF039805B05DF8C2
:1009200004FB00BF012912D009D873B90F2A0CD8D3
:1009300000EB8200009A1268426018467047033943
:10094000012994BF01200220704702207047084609
:10095000704700BF10B584B0002303AC039200942D
:100960000A461946FFF7DEFF04B010BD70B5D36B21
:10097000136402F1040C05460C46BCE80F00ADF50B
:100980000E7D0DF15C0EAEE80F00BCE80F00AEE886
:100990000F00BCE80F00AEE80F009CE80F004FF01E
:1009A000FF368EE80F00169610E0FFF7D3FF2146C2
:1009B00016A8A847034616AA6946082083B9049BCF
:1009C0009847052806460CD0092809D0269968467C
:1009D000FFF70AFE03466A460C2116A8002BE4D056
:1009E000092616A8FFF74EFE30460DF50E7D70BDA8
:1009F0002DE9F04FCC6C89B01E4654F8043B0694A8
:100A00000D46174600F00308002E79D01A0C1B047F
:100A100005938DF81D200223D2B204EB82048DF8D9
:100A20001C302B6DB8F1020F08BFAC6B13F0010343
:100A30000CD005A9384600F079FB18B9082009B098
:100A4000BDE8F08F092009B0BDE8F08FD4F800A010
:100A5000BAF1000FEDD0019300F008030293022ECB
:100A60004AD0B4F800A0B4F802900434AB6C29F07A
:100A7000010B0F2138469B44FFF746FF834539D8C9
:100A80002AF001039B44834594BF002001204FEAD4
:100A9000490303F002030AF0010A43EA0A03012BA7
:100AA00049D0022B32D0002BCCD1B8F1000F02D0AC
:100AB000002840F0CD800434D4F800A0BAF1000F33
:100AC000CDD105A9384600F031FB0028BAD1019BF1
:100AD000002BB3D00F213846FFF716FF0E21024638
:100AE0003846FFF737FF38466A4A0F21FFF732FFD3
:100AF0000720A8E70020CAE7D4F804900834B5E737
:100B00001B0205930323ADF81C308AE7236823F00A
:100B1000004BB8F1000F45D128B1029A002A5CD0F1
:100B2000BBF1000F74D0002B00DA04340BF1010B81
:100B300004EB8B04C0E7B8F1000F19D1B0B16368C2
:100B40002268991C4FEAD2723FF47CAF05F158013C
:100B50000133049100F09080201DFFF7C1FD04AB2C
:100B600001462846AFF3008000285BD10834A3E794
:100B70000D213846D5F82090FFF7C6FE8145F5D106
:100B8000AB6A9C42F2D12046FFF7E2FC0F210246FD
:100B90003846FFF7DFFE38462A460021FFF7DAFE27
:100BA000072050E70D213846D5F82090FFF7ACFE1E
:100BB000814501D02368B6E7AB6A9C42FAD1042391
:100BC0000022C5E90B23E318C5F828B06B6323683E
:100BD000002B59DB01230193A8E705F15803CDF859
:100BE0000C8004F1040AB04691461E460EE05046C1
:100BF0000496FFF775FD0022014604AB284609F173
:100C000001090AF1040AAFF30080E0B9D945EED139
:100C10000D213846FFF778FE049BAC62C5E9080356
:100C2000062010E781460D213846FFF76DFEB9F129
:100C3000020F286225D12B46049A43F82C2F6B62B1
:100C4000AC620620FFE646462368DDF80C806AE7C2
:100C50002046FFF77DFC04340246AC632846144668
:100C6000AFF3008000283FF4EDAE384622460F2156
:100C7000FFF770FE0720E6E60D213846FFF744FE39
:100C80002862049B6B62DBE70BF1010004EB800040
:100C90007AE700BF000000000023A9E60123A7E6D1
:100CA0000223A5E62DE9F0430646C3B015461C46CF
:100CB000042900F2BF80DFE801F09E57BD2D03003C
:100CC000002C40F0B780102A00F2B4800368D806E8
:100CD00000F1F98020AF384600F098F9B46B39463E
:100CE00000234FF0010C0CFA03F22A42204603F1D4
:100CF000010303D050F8042B0A600446042B01F1D1
:100D00000401F0D13846B46300F076F9002043B016
:100D1000BDE8F083032C40F08D8094B204EB1243C5
:100D2000102B4FEA124500F2858003681F0700F17F
:100D3000D28020AF384600F03DF9B26B07EBC50119
:100D400054B10B46D01A01EBC401E4001D5843F81E
:100D5000045B8B42FAD122443846B26300F008F9B2
:100D6000002043B0BDE8F083012C4FEA124895B251
:100D70005CD0052C5ED108EB0509B9F1200F59D8DC
:100D8000B8F10F0F79D9A946002D40F08A80B36BD6
:100D90006DB320AF4FF0000907EBC807043F03EB2A
:100DA000C50553F8041B47F8041FAB42F9D1B9F14C
:100DB000000F0FD06F464146102938BF102107EBB6
:100DC000C101843903EBC90553F8040B41F8040F42
:100DD000AB42F9D1012C00F08680B8F10F0FB5635A
:100DE00047D9B9F1000F02D0684600F0B9F80020E9
:100DF00043B0BDE8F083ECB9806B23461FFA82FC58
:100E00000124371D04FA03F212EA0C0F014604D044
:100E100051F8042B47F8232008460133102BF1D159
:100E200015F40055E3D1B063284604E008EB050350
:100E3000102B03D9022043B0BDE8F083B8F10F0FA7
:100E4000F8D83368DA0706D5304623F0030340F8B4
:100E5000483B00F079F820AF384600F075F8B36BE6
:100E6000002D97D11D460435B563384600F068F86B
:100E7000BDE720A800F06CF8B3E7B9F1100F40D936
:100E8000A9F110093368D90708D523F001033046CA
:100E900043F0020340F8483B00F05EF8B9F1000F60
:100EA00032D033685A0720D4B8F10F0F25D96F46D6
:100EB0003846C8F1100500F057F8002DB36B7FF7E6
:100EC0007AAF20AF68E723F01003336006F5E870CF
:100ED00000F09CF8FEE623F00803036000F5A8701C
:100EE00000F068F825E720AFBDE7304623F00403A3
:100EF00040F8D03B00F038F8D6E720A800F02CF8F6
:100F0000D5E74FF00009BDE7B8F10F0F3FF63FAF4F
:100F100020AF384600F020F8B36B002D7FF43AAFD5
:100F2000384600F015F862E700F1340191E8380026
:100F30009C46A6464CF8045D90E8FF0FE54600BDD0
:100F400090EC210B704700BF80EC210B704700BF75
:100F500090EC200B704700BF80EC200B704700BF67
:100F6000D0EC200B704700BFC0EC200B704700BFD7
:100F7000F0EC0201F0EC0211F0EC0221F0EC023195
:100F8000F0EC0241F0EC0251F0EC0261F0EC027185
:100F9000F0EC0281F0EC0291F0EC02A1F0EC02B175
:100FA000F0EC02C1F0EC02D1F0EC02E1F0EC02F165
:100FB000704700BFE0EC0201E0EC0211E0EC02211E
:100FC000E0EC0231E0EC0241E0EC0251E0EC0261C5
:100FD000E0EC0271E0EC0281E0EC0291E0EC02A1B5
:100FE000E0EC02B1E0EC02C1E0EC02D1E0EC02E1A5
:100FF000E0EC02F1704700BFB0FC0181B0FC019150
:10100000B0FC01A1B0FC01B1704700BFA0FC0181A0
:10101000A0FC0191A0FC01A1A0FC01B1704700BFA0
:10102000EC4600B52DE900502DE9FF1F4FF00003FD
:101030002DE90C0001A9FFF7E1FBDDF840E012B05B
:10104000704700BFEC4600B52DE900502DE9FF1FA9
:101050004FF000032DE90C0001A9FFF70BFCDDF8B0
:1010600040E012B0704700BFEC4600B52DE90050DB
:101070002DE9FF1F4FF000032DE90C0001A9FFF738
:101080001BFCDDF840E012B0704700BFEC4600B535
:101090002DE900502DE9FF1F4FF000032DE90C0052
:1010A00001ABFFF7DFFBDDF840E012B0704700BF97
:1010B000EC4600B52DE900502DE9FF1F4FF000036D
:1010C0002DE90C0001AAFFF751FCDDF840E012B059
:1010D000704700BF027A03467AB9427AA2B14168EA
:1010E000013A10B44272086803220C1D1A720202FF
:1010F0005C60000E10BC1A6070470068013A1A72FA
:1011000002021A60000E7047B020704700B585B02B
:10111000002303AA009219460C22FFF7DDFB039877
:1011200005B05DF804FB00BFF0E700BF2DE9F04318
:10113000054685B00E464FF000083046FFF7CAFF5F
:10114000B028044600F0BA80070620D500F0F0036E
:10115000802B4DD0902B36D0A02B60D0B02B74D0EC
:10116000C02B00F08B8000F0F803D02B0BD100F0E7
:1011700007020132052342F4002201212846FFF72D
:1011800091FD0028D9D0092005B0BDE8F083830087
:10119000DBB21F1D0DF10C0900231946CDF800909C
:1011A0000D222846FFF798FB039BCDF800906006C0
:1011B0004CBFDF1BFF1800230D221946284603975A
:1011C000FFF7B0FBB9E700F00D030D2BDBD003AF49
:1011D000002300F00F02194600972846FFF77CFB1A
:1011E000002300970D2219462846FFF79BFBA4E732
:1011F0003046FFF76FFF24022043B0F5004FC2D006
:1012000004010023A2B219462846FFF74BFD00282F
:10121000B9D114F4004F18BF4FF001088DE7C24355
:1012200002F007034FF47F621A41010702F47F6264
:101230004FF0000348BF42F4804219462846FFF7AA
:1012400031FD00283FF479AF9DE7B1283BD0B228AB
:1012500000F09380B32841D000F0FC03B42B92D06F
:1012600000F007020132012342F400221946284609
:10127000FFF718FD00283FF460AF84E7C6284AD086
:10128000C72854D000F0F803C02B63D0C82868D01A
:10129000C9287FF478AF3046FFF71CFF020300F047
:1012A0000F0002F470220130024301210523284679
:1012B000FFF7F8FC00283FF440AF64E7B8F1000FF7
:1012C00018D0002060E73046FFF704FF02460028F0
:1012D0003FF459AF10F0F003C8D054E73046FFF7A1
:1012E000F9FE020300F00F03013302F470221A43E7
:1012F0000123BBE703AC43460E2241460094284637
:10130000FFF7EAFA009443460F2241462846FFF7CA
:1013100009FB404638E73046FFF7DCFE020300F0E9
:101320000F03013302F470221A4303239EE7304671
:10133000FFF7D0FE024600283FF425AF10F0F0037F
:101340007FF421AF04212846FFF7ACFC00283FF4CE
:10135000F4AE18E700F00F020132032342F420221A
:1013600084E73046FFF7B6FE00F0F00200F00F030E
:101370001032013343EA023297E700230DF10C09E2
:101380000D221946CDF800902846FFF7A5FA304601
:10139000FFF7A0FE02064FF002040CD5039B00F0FD
:1013A0007F00A040184403903046FFF793FE0306E9
:1013B00004F10704F2D4039BCDF8009000F07F0203
:1013C000A24003F501731A440023039219460D222B
:1013D0002846FFF7A7FAB0E610B5C26C536884B090
:1013E0004FF0030C08321C0208461B0E01A90194A1
:1013F00002928DF80CC08DF80D30FFF797FE04B007
:1014000010BD00BF08B5FFF78FFE806C08BD00BFA0
:1014100008B5FFF789FEC06CC379023300EB830087
:1014200008BD00BF704700BF034613F8012B002A18
:10143000FBD1181A013870470000000000000000BE
:1014400001F0FF01102A2BDB10F0070F08D010F875
:10145000013B013A8B422DD010F0070F42B3F6D179
:10146000F0B441EA012141EA014122F007047FF092
:1014700000070023F0E80256083C85EA010586EAE9
:10148000010685FA47F5A3FA87F586FA47F6A5FA25
:1014900087F68EB9EED1F0BC01F0FF0102F0070231
:1014A00032B110F8013B013A83EA010313B1F8D1DC
:1014B0000020704701387047002D06BF35460338BD
:1014C000073815F0010F07D1013015F4807F02BFF6
:1014D000013015F4C03F0130F0BC0138704700BF47
:1014E00081F0004102E000BF83F0004330B54FEAD5
:1014F00041044FEA430594EA050F08BF90EA020F42
:101500001FBF54EA000C55EA020C7FEA645C7FEAD4
:10151000655C00F0E2804FEA5454D4EB5555B8BFF7
:101520006D420CDD2C4480EA020281EA030382EA68
:10153000000083EA010180EA020281EA0303362DFA
:1015400088BF30BD11F0004F4FEA01314FF4801CCD
:101550004CEA113102D0404261EB410113F0004FDF
:101560004FEA03334CEA133302D0524263EB430396
:1015700094EA050F00F0A780A4F10104D5F1200E34
:101580000DDB02FA0EFC22FA05F2801841F100018F
:1015900003FA0EF2801843FA05F359410EE0A5F163
:1015A00020050EF1200E012A03FA0EFC28BF4CF094
:1015B000020C43FA05F3C01851EBE37101F000454A
:1015C00007D54FF0000EDCF1000C7EEB00006EEB57
:1015D0000101B1F5801F1BD3B1F5001F0CD34908E1
:1015E0005FEA30004FEA3C0C04F101044FEA445238
:1015F00012F5800F80F09A80BCF1004F08BF5FEABF
:10160000500C50F1000041EB045141EA050130BD9E
:101610005FEA4C0C404141EB0101013C28BFB1F5B0
:10162000801FE9D291F0000F04BF01460020B1FAFB
:1016300081F308BF2033A3F10B03B3F120020CDACE
:101640000C3208DD02F1140CC2F10C0201FA0CF0AC
:1016500021FA02F10CE002F11402D8BFC2F1200C11
:1016600001FA02F120FA0CFCDCBF41EA0C019040C7
:10167000E41AA2BF01EB0451294330BD6FEA040410
:101680001F3C1CDA0C340EDC04F11404C4F12002FB
:1016900020FA04F001FA02F340EA030021FA04F30D
:1016A00045EA030130BDC4F10C04C4F1200220FA64
:1016B00002F001FA04F340EA0300294630BD21FAA2
:1016C00004F0294630BD94F0000F83F4801306BF68
:1016D00081F480110134013D4EE77FEA645C18BF5C
:1016E0007FEA655C29D094EA050F08BF90EA020FF3
:1016F00005D054EA000C04BF1946104630BD91EAEB
:10170000030F1EBF0021002030BD5FEA545C05D1ED
:101710004000494128BF41F0004130BD14F580042C
:101720003CBF01F5801130BD01F0004545F0FE41A0
:1017300041F470014FF0000030BD7FEA645C1ABFD5
:10174000194610467FEA655C1CBF0B46024650EA0C
:10175000013406BF52EA033591EA030F41F4002138
:1017600030BD00BF90F0000F04BF0021704730B5BE
:101770004FF4806404F132044FF000054FF0000193
:1017800050E700BF90F0000F04BF0021704730B554
:101790004FF4806404F1320410F0004548BF404229
:1017A0004FF000013EE700BF42004FEAE2014FEA7E
:1017B00031014FEA02701FBF12F07F4393F07F4F59
:1017C00081F06051704732F07F4208BF704793F05C
:1017D0007F4F04BF41F40021704730B54FF460746F
:1017E00001F0004521F000411CE700BF50EA010272
:1017F00008BF704730B54FF000050AE050EA01021B
:1018000008BF704730B511F0004502D5404261EB8A
:1018100041014FF4806404F132045FEA915C3FF4CB
:10182000D8AE4FF003025FEADC0C18BF03325FEA68
:10183000DC0C18BF033202EBDC02C2F1200300FA19
:1018400003FC20FA02F001FA03FE40EA0E0021FA3E
:1018500002F11444BDE600BF70B54FF0FF0C4CF42C
:10186000E06C1CEA11541DBF1CEA135594EA0C0FDE
:1018700095EA0C0F00F0DEF82C4481EA030621EA19
:101880004C5123EA4C5350EA013518BF52EA033554
:1018900041F4801143F4801338D0A0FB02CE4FF006
:1018A0000005E1FB02E506F00042E0FB03E54FF036
:1018B0000006E1FB03569CF0000F18BF4EF0010E2E
:1018C000A4F1FF04B6F5007F64F5407404D25FEA2A
:1018D0004E0E6D4146EB060642EAC62141EA5551DD
:1018E0004FEAC52040EA5E504FEACE2EB4F1FD0C1F
:1018F00088BFBCF5E06F1ED8BEF1004F08BF5FEA9D
:10190000500E50F1000041EB045170BD06F000464E
:1019100046EA010140EA020081EA0301B4EB5C04FB
:10192000C2BFD4EB0C0541EA045170BD41F48011F3
:101930004FF0000E013C00F3AB8014F1360FDEBF18
:10194000002001F0004170BDC4F10004203C35DAF4
:101950000C341BDC04F11404C4F1200500FA05F377
:1019600020FA04F001FA05F240EA020001F0004218
:1019700021F0004110EBD37021FA04F642EB06018E
:101980005EEA430E08BF20EAD37070BDC4F10C04B8
:10199000C4F1200500FA04F320FA05F001FA04F27C
:1019A00040EA020001F0004110EBD37041F1000168
:1019B0005EEA430E08BF20EAD37070BDC4F1200573
:1019C00000FA05F24EEA020E20FA04F301FA05F2DB
:1019D00043EA020321FA04F001F0004121FA04F283
:1019E00020EA020000EBD3705EEA430E08BF20EA53
:1019F000D37070BD94F0000F0FD101F0004640008D
:101A000041EB010111F4801F08BF013CF7D041EA0E
:101A1000060195F0000F18BF704703F00046520012
:101A200043EB030313F4801F08BF013DF7D043EAE3
:101A30000603704794EA0C0F0CEA135518BF95EA99
:101A40000C0F0CD050EA410618BF52EA4306D1D120
:101A500081EA030101F000414FF0000070BD50EA3F
:101A6000410606BF1046194652EA430619D094EAC9
:101A70000C0F02D150EA013613D195EA0C0F05D1B3
:101A800052EA03361CBF104619460AD181EA030107
:101A900001F0004141F0FE4141F470014FF00000BF
:101AA00070BD41F0FE4141F4780170BD70B54FF05A
:101AB000FF0C4CF4E06C1CEA11541DBF1CEA1355DA
:101AC00094EA0C0F95EA0C0F00F0A7F8A4EB0504BC
:101AD00081EA030E52EA03354FEA013100F08880B3
:101AE0004FEA03334FF0805545EA131343EA12637C
:101AF0004FEA022245EA111545EA10654FEA002631
:101B00000EF000419D4208BF964244F1FD0404F5E9
:101B1000407402D25B084FEA3202B61A65EB030545
:101B20005B084FEA32024FF480104FF4002CB6EB02
:101B3000020E75EB030E22BFB61A754640EA0C0082
:101B40005B084FEA3202B6EB020E75EB030E22BFC2
:101B5000B61A754640EA5C005B084FEA3202B6EB03
:101B6000020E75EB030E22BFB61A754640EA9C00C2
:101B70005B084FEA3202B6EB020E75EB030E22BF92
:101B8000B61A754640EADC0055EA060E18D04FEA50
:101B9000051545EA16754FEA06164FEAC30343EAF0
:101BA00052734FEAC2025FEA1C1CC0D111F4801FBD
:101BB0000BD141EA00014FF000004FF0004CB6E7B6
:101BC00011F4801F04BF01430020B4F1FD0C88BF55
:101BD000BCF5E06F3FF6AFAEB5EB030C04BFB6EB60
:101BE000020C5FEA500C50F1000041EB045170BD53
:101BF0000EF0004E4EEA113114EB5C04C2BFD4EB80
:101C00000C0541EA045170BD41F480114FF0000E03
:101C1000013C90E645EA060E8DE60CEA135594EA7F
:101C20000C0F08BF95EA0C0F3FF43BAF94EA0C0F82
:101C30000AD150EA01347FF434AF95EA0C0F7FF4F7
:101C400025AF104619462CE795EA0C0F06D152EA4B
:101C500003353FF4FDAE1046194622E750EA41062F
:101C600018BF52EA43067FF4C5AE50EA41047FF440
:101C70000DAF52EA43057FF4EBAE12E74FF0FF3CA5
:101C800006E000BF4FF0010C02E000BF4FF0010C76
:101C90004DF804CD4FEA410C7FEA6C5C4FEA430CEF
:101CA00018BF7FEA6C5C1BD001B050EA410C0CBF3E
:101CB00052EA430C91EA030F02BF90EA020F0020A0
:101CC000704710F1000F91EA030F58BF994208BF07
:101CD00090422CBFD8176FEAE37040F001007047C4
:101CE0004FEA410C7FEA6C5C02D150EA013C07D11B
:101CF0004FEA430C7FEA6C5CD6D152EA033CD3D066
:101D00005DF8040B704700BF8446104662468C465F
:101D10001946634600E000BF01B5FFF7B7FF002892
:101D200048BF10F1000F01BD4DF808EDFFF7F4FFBB
:101D30000CBF012000205DF808FB00BF4DF808ED46
:101D4000FFF7EAFF34BF012000205DF808FB00BF69
:101D50004DF808EDFFF7E0FF94BF012000205DF88B
:101D600008FB00BF4DF808EDFFF7CEFF94BF012040
:101D700000205DF808FB00BF4DF808EDFFF7C4FF39
:101D800034BF012000205DF808FB00BF4FEA410C82
:101D90007FEA6C5C02D150EA013C0AD14FEA430C65
:101DA0007FEA6C5C02D152EA033C02D14FF00000A2
:101DB00070474FF0010070474FEA410212F50012E0
:101DC00015D211D56FF47873B3EB625212D94FEA82
:101DD000C12343F0004343EA505311F0004F23FA6C
:101DE00002F018BF404270474FF00000704750EAC1
:101DF000013005D111F0004008BF6FF0004070477E
:101E00004FF00000704700BF08B500F061FA0121F3
:101E10001E4800F0ACFA1E4B1A69012060F3020262
:101E20001A6103F5E6331A6E60F301021A66014681
:101E300000F0BCFA00F088FA0028FBD0022301224F
:101E40009021104600F006FB0121022000F0AEFABE
:101E5000192000F067FA0128FAD1002000F0CEFA2C
:101E6000042000F0DBFA042000F0D0FA012000F09A
:101E7000DDFA022000F004FB00F00AFB0228FBD18F
:101E8000002000F0D3FA00F0CBFD08BD1C0040009C
:101E90000070004000BF704700BFFDE700BFFDE7D6
:101EA000FEE700BFFDE7704710B582B001214FF497
:101EB000401000F05CFA684600F0B1FB02238DF898
:101EC00006308DF805304FF480730093054C694659
:101ED000204600F05DFB01220821204600F0A9FB0E
:101EE00002B010BD00000240F0B583B001214FF4F4
:101EF000880000F03CFA684600F015FC00248DF8DC
:101F0000014001268DF805608DF8034004278DF807
:101F10000070144D2146284600F01AFC2146284640
:101F200000F011FC19222146284600F0C2FC32467E
:101F30002146284600F0CFFC6A462146284600F09C
:101F40000FFC32464FF40071284600F0E5FC2246B3
:101F50003946192000F08CFB3146284600F0FEFC83
:101F600003B0F0BD00000140F8B50121214800F0A8
:101F7000FEF9214C0121204600F0FEFA1F4E3046AA
:101F800000F08EFAA36823F4804323F010031B04AF
:101F90001B0CA360A36843F01003A360A3686FF356
:101FA0004513A360A36843F08003A360A3686FF3A5
:101FB0008613A360A368012565F30D33A360A368AE
:101FC00065F38B23A360A368022767F30923A3604B
:101FD0000B4B236100220421382000F049FB2A46E4
:101FE0003946304600F096FA2A21064800F0CBFA2E
:101FF000F8BD00BF160030000064024008640240D3
:10200000280001400465024008B5FFF74DFFFFF7C7
:102010006BFFFFF7A9FF08BD30B585B06B4683E8BD
:1020200003002F4B1B78002B54D10B460A4601EBC3
:10203000800E4FF0000C964506D052F8040B03902A
:102040009DF80C108C44F6E7BCF5206F45D80022B3
:102050001EE0244B93ED007AB8EE477ADFED226A5A
:10206000C6EE877AFCEEE77A17EE903A98B201381E
:1020700080B200239DF80810994208D9511C1B4CCE
:1020800024F8120001338AB2F4E703ABE2E72B1D18
:102090001D469E450CD018680290BDF80A30039387
:1020A000632BD6D944F620618B42EED9104BD1E791
:1020B000104B9A686FF300029A601FFA8CFCDA6882
:1020C0006CF30F02DA600C4A5A610C4B01221A7051
:1020D000002000E0012005B030BD0420FBE700BF78
:1020E0000A160020486D000800C8AF4A0802002008
:1020F0004C6D0008006402400A0200200402002027
:1021000038B5164B1B7833BB154B1B780BB9042025
:1021100022E00125114B1D70124C00222946204659
:1021200000F006FC0021204600F017FB0E4B1A8839
:102130003121204600F000FB06220021204600F05D
:1021400097FB2946094800F0EFF92946204600F0A0
:10215000E5FA002000E0012038BD00BF0A1600208B
:102160000402002000000140080200200864024030
:1021700010B5074C04220021204600F079FB002115
:10218000204600F0CBFA034B00221A7010BD00BFAE
:10219000000001400A160020034B1B780BB1012000
:1021A00070470220704700BF0A16002008B50220C1
:1021B00000F0C0F900B908BD01221146034800F043
:1021C000B7FB022000F0C8F9F5E700BF00000140AE
:1021D00010B501210B4800F0B7FB00B910BD094C48
:1021E00004220021204600F043FB0021204600F09D
:1021F00095FA054B00221A700121204600F0ABFB36
:10220000ECE700BF000001400A16002070B584B062
:10221000FFF7FAFEFFF7C0FF154E3060FA2001F01D
:10222000B7FC03250095134C01946B4693E803001B
:10223000FFF7F2FEFFF764FFFFF7AEFF3060052007
:1022400001F0A6FCFFF794FF142001F0A1FC042389
:1022500023720295039404AB13E90300FFF7DCFE3D
:10226000FFF74EFF4FF47A7001F092FCFAE700BFDF
:102270000C1600200000002000B583B000F09AFB8F
:10228000FFF7C2FD032000F037FA4FF0E022D2F84A
:10229000FC3D43F08073C2F8FC3DA2F550420023A0
:1022A0005360116841F00101116001930122009215
:1022B0004FF400720449054801F07EFA012800D06D
:1022C000FEE701F0AFFAFEE7506D00080D220008AE
:1022D000124A136843F001031360104B1B6813F09C
:1022E000020FFAD00D4B9A686FF301029A600B4B04
:1022F0009B6813F00C0FFAD1084B002199601A6803
:1023000022F0867222F480321A60054A5A60C3F8BD
:10231000A0104FF41F02DA60704700BF003802407F
:1023200002300300030C03F1804303F50E331A68F7
:1023300000F01F00012303FA00F030EA020301D08D
:10234000002070470120704710B500241120FFF7CE
:10235000E9FF012804D0B4F5405F01D20134F5E76C
:102360001120FFF7DFFF012800D0002010BD012958
:102370000ED0030C03F1804303F50E331A6800F00E
:102380001F00012101FA00F022EA000018607047E6
:10239000030C03F1804303F50E331A6800F01F00AD
:1023A00001FA00F01043186070470000042821D89B
:1023B000DFE800F003090F151B000F4B1A6861F3EB
:1023C00000021A6070470C4B1A6861F310421A60E1
:1023D0007047094B1A6861F318621A607047064B20
:1023E0001A6F61F300021A677047034B5A6F61F36B
:1023F00000025A67704700BF00380240024B9A68DB
:1024000060F307129A60704700380240024B9A68E6
:1024100060F38C229A60704700380240024B9A6841
:1024200060F34F329A60704700380240012807D0AD
:10243000074BD3F8A4206FF30512C3F8A42070470C
:10244000034AD2F8A43043F03003C2F8A4307047F6
:102450000038024030B4094C656860F396556560F9
:10246000606861F38E106060616862F3030161600F
:10247000626863F31242626030BC70470038024009
:10248000024B9A6860F301029A607047003802407C
:10249000024B9868C0F38100704700BF00380240CB
:1024A00010B403686FF3000303600023036043600C
:1024B0008360C36040F2FF630340B3F5C16F10D285
:1024C000114C6268C3B2083B1048A0FB03131B0900
:1024D0009B000F2101FA03F3134363605DF8044B83
:1024E0007047B3F5D16FF9D2094C6268C3B2083BAB
:1024F0000648A0FB03131B099B000F2101FA03F3FD
:1025000013436360EAE700BF00640240CDCCCCCC4B
:10251000006602401AB103681943016070470368FE
:1025200023EA010101607047036861F3000303605F
:1025300070470000B0F1805F05D9054B1B6803426E
:1025400004D001207047034B1B68F8E70020704758
:102550000066024000640240B0F1805F04D920F0C0
:102560007040034B58607047024B5860704700BF83
:102570000066024000640240D0F8003161F30003BD
:10258000C0F800317047036861F3060303607047C9
:1025900030B50C88002302E0640801339BB2002CA4
:1025A0003CD014F0010FF7D005684FEA430C03222A
:1025B00002FA0CF225EA02050560056891F806E0CA
:1025C0000EFA0CFE45EA0E05056045684FF0010E57
:1025D0000EFA03FE25EA0E054560456891F804E011
:1025E0000EFA03FE45EA0E054560856825EA0205F8
:1025F0008560856891F807E00EFA0CFE45EA0E0545
:102600008560C56825EA0202C260C26891F805E0EB
:102610000EFA0CFC42EA0C02C260BDE730BD4FF678
:10262000FF73036000238371037143710123C3713E
:10263000704701F007039B009A40C9080BD0416A1C
:102640004FF00F0C0CFA03F321EA03034362436AD1
:102650001A4342627047016A4FF00F0C0CFA03F301
:1026600021EA03030362036A1A430262704700000F
:1026700000B51E4BDB68C3F30223C3F1070CBCF1AA
:10268000040F28BF4FF0040C03F1040EBEF1060F37
:1026900022D9033B4FF0FF3E0EFA0CFC21EA0C015D
:1026A00099400EFA03F322EA03031943002815DBCD
:1026B0000901C9B200F1604303F5614383F80013D7
:1026C000002807DB00F01F02400901239340084A5D
:1026D00042F820305DF804FB0023DBE700F00F0236
:1026E0000901C9B2034B9954EAE700BF00ED00E0CD
:1026F00000E100E014ED00E0074AD36823F4E06352
:102700001B041B0C000200F4E060034343F0BF63B2
:1027100043F40033D360704700ED00E0036861F3D9
:102720000003036070470023037043708370C3701D
:102730000371437183717047C1628262436943F0E0
:10274000010343617047036861F309230360704725
:10275000036861F30613036070474162704700002D
:1027600030B5547801F1080304FA03F3947801F1C9
:102770000905AC403D4DA84203D005F58065A8424F
:1027800007D14568A4B225EA0405456045682C4395
:10279000446044689BB224EA0304446044682343D1
:1027A000436007290AD8DFE801F0040948094E0907
:1027B000545A1478836964F306138361D3784D0007
:1027C0006C1CA34092F804E0EC1C0EFA04FE274CAB
:1027D000A04203D004F58064A04208D11FFA8EFE07
:1027E000046A24EA0E0404624EEA040404629BB202
:1027F000046A24EA030404622343036292F805C0D6
:102800000CFA05FC92790131490002FA01F1174AEC
:10281000904203D002F58062904205D189B223EA4A
:10282000010303620B4303621FFA8CF3026A22EA7C
:10283000030202621343036230BD1478836964F3B8
:102840000E338361BAE71478C36964F30613C36176
:10285000B4E71478C36964F30E33C361AEE7147848
:10286000036F64F306130367A8E700BF000001408D
:1028700007291DD8DFE801F0041C091C0E1C1318E1
:10288000836962F3061383617047836962F30E33D1
:1028900083617047C36962F30613C3617047C369FC
:1028A00062F30E33C3617047036F62F3061303676D
:1028B000704707290ED8DFE801F0040D060D080D5A
:1028C0000A0C4263704782637047C26370470264B8
:1028D00070474267704707291DD8DFE801F0041CE4
:1028E000091C0E1C1318836962F3C30383617047CC
:1028F000836962F3CB2383617047C36962F3C303C7
:10290000C3617047C36962F3CB23C3617047036F30
:1029100062F3C30303677047012A05D01AB9C3687D
:1029200023EA0101C1607047C3681943C160704761
:10293000012A05D01AB9C36823EA0101C1607047B2
:10294000C3681943C160704703690B4201D001207D
:10295000704700207047C94301617047436C61F3C1
:10296000CF33436470470000002103E00B4B5B58FA
:10297000435004310A480B4B42189A42F6D30A4A94
:1029800002E0002342F8043B084B9A42F9D300F0DE
:1029900011F801F041FCFFF76FFC70470473000869
:1029A00000000020E8010020E8010020C8A7012065
:1029B000FEE70000174AD2F8883043F47003C2F8EB
:1029C0008830154A136843F001031360124B1B68EB
:1029D00013F0020FFAD0104B9A686FF301029A605D
:1029E0000D4B9B6813F00C0FFAD10B4B0021996033
:1029F0001A6822F0867222F480321A60074A5A60FE
:102A0000C3F8A0104FF41F02DA60024B4FF00062CF
:102A10009A60704700ED00E0003802400230030089
:102A200010B5FFF735FD01281AD0022826D018B1BD
:102A30002A4B2B4A1A6016E02A4BD3F8A03013F425
:102A4000804F09D0274BD3F8A03013F4805F03D018
:102A5000224B254A1A6006E0204B214A1A6002E008
:102A60001E4B1F4A1A601F4B9B68C3F303131F4A78
:102A7000D15C1A4A1368CB40136010BD194B5A68D9
:102A80005968C1F3881C5A6802F00F025B68C3F3EF
:102A90000243174911F803E04FEA4C11B1EB0C0067
:102AA00064EB0404A30143EA90638101091A63EB18
:102AB0000403DB0043EA5173C90011EB0C0C43F132
:102AC000000359020EFB02F200234FEA4C2041EAB8
:102AD000DC51FDF7BDFB014B1860C4E70C00002082
:102AE00000127A0000380240006CDC02606D0008C1
:102AF000586D0008104A12F0070F1AD0D11D21F0AE
:102B00000701C1F5C83313440A460C48026000218E
:102B100041601344083B23F00703094803605960F0
:102B20001960991A51601360064B1960064B1960C1
:102B300070474FF4C833E8E71416002024A601209C
:102B40001016002018A6012014A60120164B1A46C4
:102B50001B688342FBD3516802EB010C844509D00A
:102B6000416800EB010C634509D00360904219D025
:102B7000106070474068014451601046F0E710B49F
:102B80000A4C2468A3420BD05B6819444160136867
:102B90001B680360904200D010605DF8044B7047E2
:102BA0000460F7E7704700BF24A60120101600203C
:102BB00070B5054600F07CFE364B1B689BB13DB1FD
:102BC00005F00703C3F11003DA43AA420ED31D44F4
:102BD000002D47DB002D47D02F4B1B68AB4252D353
:102BE0002E4A146806E0FFF785FFE8E70025EFE7C7
:102BF00022461C466368AB4202D22368002BF7D101
:102C0000244B1B68A34240D0166808362368136023
:102C100063685B1B102B10D9601910F0070F08D0E8
:102C20004FF0500383F31188BFF36F8FBFF34F8FC3
:102C3000FEE743606560FFF789FF626816490B682D
:102C40009B1A0B60164909688B4201D214490B602C
:102C500042F00042626000232360124A136801338D
:102C6000136002E0002600E0002600F0EBFE16F004
:102C7000070F0CD04FF0500383F31188BFF36F8F11
:102C8000BFF34F8FFEE70026EFE70026EDE7304663
:102C900070BD00BF1016002014A6012024A601203C
:102CA00018A601201CA60120A8B338B50446A0F13F
:102CB000080550F8043C002B08DB4FF0500383F369
:102CC0001188BFF36F8FBFF34F8FFEE750F8082CCA
:102CD00042B14FF0500383F31188BFF36F8FBFF3FE
:102CE0004F8FFEE7002B00DB38BD23F0004340F898
:102CF000043C00F0DDFD54F8041C074A13680B4443
:102D000013602846FFF722FF044A1368013313605B
:102D100000F098FEE8E7704714A6012020A60120E5
:102D200082B0002301930D4B1B68B3F1FF3F08D025
:102D30004FF0500383F31188BFF36F8FBFF34F8FB2
:102D4000FEE74FF0500383F31188BFF36F8FBFF39B
:102D50004F8F019B002BFCD002B070471000002069
:102D600008480068006880F308884FF0000080F38E
:102D7000148862B661B6BFF34F8FBFF36F8F00DF69
:102D800000BF000008ED00E0DFF80C00016841F42E
:102D9000700101607047000088ED00E04FF0807323
:102DA00040F8043C21F0010140F8081C054B40F8B4
:102DB0000C3C40F8202C6FF0020340F8243C4438CF
:102DC000704700BF212D0008000000000000000037
:102DD000074B19680868B0E8F04F80F30988BFF323
:102DE0006F8F4FF0000080F311887047AFF30080C1
:102DF00074A601204FF0500383F31188BFF36F8F47
:102E0000BFF34F8F0B4A136801331360012B00D0BF
:102E100070474FF0E023D3F8043D13F0FF0FF7D0D5
:102E20004FF0500383F31188BFF36F8FBFF34F8FC1
:102E3000FEE700BF10000020094B1B6843B94FF0AC
:102E4000500383F31188BFF36F8FBFF34F8FFEE7FB
:102E5000013B034A13600BB983F31188704700BF2D
:102E60001000002000000000000000000000000032
:102E7000EFF30980BFF36F8F154B1A681EF0100F28
:102E800008BF20ED108A20E9F04F10602DE90900FD
:102E90004FF0500080F31188BFF34F8FBFF36F8F57
:102EA00000F09CFE4FF0000080F3118809BC196807
:102EB0000868B0E8F04F1EF0100F08BFB0EC108AA1
:102EC00080F30988BFF36F8F704700BFAFF30080B6
:102ED00074A6012008B54FF0500383F31188BFF3A7
:102EE0006F8FBFF34F8F00F0F1FC28B14FF0E0235C
:102EF0004FF08052C3F8042D002383F3118808BDDE
:102F00004FF0E022002313619361054B1B680549D4
:102F1000A1FB03139B09013B536107231361704716
:102F20000C000020D34D62104FF0E023D3F8002DA9
:102F30003D4B9A421CD04FF0E023D3F8002D3B4B81
:102F40009A421ED030B583B0394B1A78D2B2019272
:102F5000FF221A701B78DBB28DF803309DF8033026
:102F600003F05003334A1370334B07221A601BE0FF
:102F70004FF0500383F31188BFF36F8FBFF34F8F70
:102F8000FEE74FF0500383F31188BFF36F8FBFF359
:102F90004F8FFEE7284A1368013B13609DF803300A
:102FA0005B00DBB28DF803309DF8033013F0800F27
:102FB000F0D1214B1B68032B08D04FF0500383F353
:102FC0001188BFF36F8FBFF34F8FFEE71B021A4AC2
:102FD000136003F4E0631360019BDBB2144A1370C7
:102FE0004FF0E024D4F8203D43F47003C4F8203DB2
:102FF000D4F8203D43F07043C4F8203DFFF780FF34
:1030000000250E4B1D60FFF7BFFED4F8343F43F0A0
:103010004043C4F8343FFFF7A3FE00F0DFFDFFF7A5
:103020007FFE284603B030BD71C20F4170C20F4110
:1030300000E400E02CA6012030A6012010000020B2
:1030400000F1080343604FF0FF328260C360036108
:1030500000230360704700230361704730B40D689C
:10306000B5F1FF3F11D000F108031C465B681A68F8
:10307000AA42FAD963684B6099608C60616008610C
:1030800003680133036030BC70470469F2E70369E9
:10309000416882688A60416851605A68824206D0FD
:1030A000002202611A68013A1A6018687047826843
:1030B0005A60F5E710B50446FFF79CFEA36B23B9F1
:1030C0000124FFF7B9FE204610BD0024F9E70346AE
:1030D000026C6AB110B50846D9681144D9609C6881
:1030E000A14201D31968D960D96801F0B9F810BDBF
:1030F000704738B50546FFF77DFE95F8454064B248
:1031000001E0013C64B2002C0ADD6B6A43B105F1B9
:10311000240000F0F1FD0028F3D000F0B5FEF0E748
:10312000FF2385F84530FFF787FEFFF763FE95F82C
:10313000444064B201E0013C64B2002C0ADD2B691A
:1031400043B105F1100000F0D7FD0028F3D000F0E6
:103150009BFEF0E7FF2385F84430FFF76DFE38BD96
:1031600038B590B10D460446C36B2BB1026C0021FB
:10317000A3FB022393B999B14FF0500383F3118855
:10318000BFF36F8FBFF34F8FFEE74FF0500383F312
:103190001188BFF36F8FBFF34F8FFEE70121EAE77E
:1031A000FFF728FE2368E26B216C01FB0230A06070
:1031B0000020A0636360013A02FB0133E360FF2358
:1031C00084F8443084F84530B5B923691BB9FFF75A
:1031D00033FE012038BD04F1100000F08DFD002801
:1031E000F5D04FF0E0234FF08052C3F8042DBFF329
:1031F0004F8FBFF36F8FEAE704F11000FFF720FF56
:1032000004F12400FFF71CFFE1E738B51D46049CDC
:103210000B4649B92460E063236401212046FFF78F
:103220009FFF84F84C5038BD2260F4E7F0B583B0BE
:1032300060B10C46174605460023A0FB041272B984
:1032400023B904FB05F010F1510F0AD94FF05003D8
:1032500083F31188BFF36F8FBFF34F8FFEE7012316
:10326000EEE75030FFF7A4FC064638B100903B462D
:1032700000F1500221462846FFF7C7FF304603B051
:10328000F0BDF0B585B0019290B10F460446C1B1D2
:1032900000F000FE064600BB019B002B5ED04FF005
:1032A000500383F31188BFF36F8FBFF34F8FFEE797
:1032B0004FF0500383F31188BFF36F8FBFF34F8F2D
:1032C000FEE7036C002BE3D04FF0500383F311882B
:1032D000BFF36F8FBFF34F8FFEE700263EE0394606
:1032E0002046FFF7F4FE013DA563236923B9FFF7EC
:1032F000A3FD012005B0F0BD04F1100000F0FCFCBE
:103300000028F4D04FF0E0234FF08052C3F8042D92
:10331000BFF34F8FBFF36F8FE9E7FFF78DFD0020FD
:10332000E8E702A800F060FD012621E0002384F810
:10333000443029E0002384F845302BE02046FFF795
:10334000D8FE00F07FFB09E02046FFF7D2FE00F038
:1033500079FB2046FFF7AEFE00283FD1FFF74AFD7C
:10336000A56B002DBBD1019B002BD6D0002ED8D051
:10337000FFF762FD00F09CFAFFF73CFD94F8443043
:103380005BB2B3F1FF3FD1D094F845305BB2B3F1FB
:10339000FF3FCFD0FFF750FD01A902A800F030FD9C
:1033A0000028D1D12046FFF785FE0028C6D001991C
:1033B00004F1240000F05EFC2046FFF79AFE00F0C6
:1033C00041FB0028CAD14FF0E0234FF08052C3F8F0
:1033D000042DBFF34F8FBFF36F8FBFE7002089E746
:1033E00030B110B40C4601468CB10020034612E007
:1033F0004FF0500383F31188BFF36F8FBFF34F8FEC
:10340000FEE70E4800EBC30008B1046041605DF8C0
:10341000044B70470133072BF6D8084A02EBC3026E
:1034200052688A42EDD00028F4D1044A52F8332081
:10343000002AEFD1014800EBC300EBE734A60120DE
:1034400070B504460D461646FFF7D4FC94F8443098
:103450005BB2B3F1FF3F0DD094F845305BB2B3F1EE
:10346000FF3F0BD0FFF7E8FCA36B5BB12046FFF7F3
:1034700040FE70BD002384F84430EDE7002384F85B
:103480004530EFE73246294604F1240000F00AFCFB
:10349000ECE70000074B1B681B6823B9064B4FF095
:1034A000FF321A607047034B1B68DB681A68024BD7
:1034B0001A60704778A6012024A7012010B50446A1
:1034C000006BFFF7F1FB2046FFF7EEFB10BD2DE987
:1034D000F84380460C4616469946089F0A9D92007E
:1034E000A521286B00F0CAFE2A6B06F18043013B40
:1034F00002EB830323F007066CB10022092A07D8E8
:10350000A15CAB1883F83410A15C09B10132F5E776
:10351000002385F83D30042F08D94FF0500383F382
:103520001188BFF36F8FBFF34F8FFEE7EF62AF6479
:10353000281DFFF790FD05F11800FFF78CFD2D61A8
:10354000C7F10507AF616D624A4641463046FFF755
:1035500025FC2860099B03B11D60BDE8F8830000CD
:1035600038B5002407E004EB840293000E481844A9
:10357000FFF766FD0134042CF5D90C4D2846FFF702
:103580005FFD0B4C2046FFF75BFD0A48FFF758FD37
:103590000948FFF755FD0948FFF752FD084B1D602C
:1035A000084B1C6038BD00BF80A60120F8A6012092
:1035B0000CA7012030A701205CA7012048A701200B
:1035C00078A601207CA6012010B50446FFF712FC66
:1035D000294A136801331360284B1B685BB1284BE1
:1035E0001B686BB9254B1B68DA6AE36A9A4207D8F5
:1035F000224B1C6004E0214B1C601368012B37D068
:10360000204A1368013313602364E36A01229A405D
:103610001D49086802430A601C4A03EB830302EB5E
:1036200083035B68A3609868E060211D4160996036
:10363000E36A03EB8301880002EB810161611158A9
:1036400001311150FFF7F8FB0D4B1B687BB10B4BA1
:103650001B68DA6AE36A9A4209D24FF0E0234FF01E
:103660008052C3F8042DBFF34F8FBFF36F8F10BD8F
:10367000FFF776FFC4E700BFE4A6012074A601208F
:1036800044A70120F0A60120F4A6012080A6012075
:103690000F4B1B68D3B110B5FFF7ACFB0D4BDB68CC
:1036A000DC68201DFFF7F3FC0B4A1368013B136035
:1036B000074A1368013B1360FFF7BEFB2046FFF784
:1036C000FDFE034B1B68002BE6D110BD704700BF09
:1036D000E8A601205CA70120E4A6012008B5FFF7B9
:1036E000D7FF074B1B68012BF9D94FF0E0234FF0B0
:1036F0008052C3F8042DBFF34F8FBFF36F8FEEE7F7
:1037000080A6012070B504460D46244B1E68244B4C
:1037100018680430FFF7BBFC50B9214B1B68DA6A0C
:10372000012303FA02F21F490B6823EA02030B602C
:10373000B4F1FF3F0DD03444194B1B685C60A642C6
:103740001DD9194B1868164B19680431FFF786FC10
:1037500070BD002DEFD0154A5168114B186881607B
:1037600018688C68C4601868043060601868043099
:1037700088601B685A61136801331360E8E70C4BDB
:103780001868074B19680431FFF768FC094B1B6880
:10379000A342DDD9074B1C60DAE700BF70A7012008
:1037A00074A60120F4A601207CA6012048A70120D0
:1037B00078A6012024A701202DE9F04385B0074613
:1037C000884614461E469000FFF7F2F910B3814672
:1037D0005820FFF7EDF90546C0B15822002100F04E
:1037E0004DFDC5F83090D5B10023039302950D9B94
:1037F00001930C9B00933346224641463846FFF71F
:1038000066FE2846FFF7E0FE012005E04846FFF788
:103810004BFAE8E74FF0FF3005B0BDE8F0834FF01A
:10382000FF30F9E700B583B01A4B019300230093F2
:10383000802219491948FFF7BFFF012809D0012844
:103840000AD0B0F1FF3F1CD0154B1B6803B05DF8E8
:1038500004FB00F0B1FCF2E74FF0500383F3118852
:10386000BFF36F8FBFF34F8F0E4B4FF0FF321A60D5
:103870000D4B01221A600D4B00221A60FFF754FB1A
:10388000E2E74FF0500383F31188BFF36F8FBFF36C
:103890004F8FFEE720A70120706D0008DD3600087D
:1038A0001400002024A7012044A7012070A70120B4
:1038B000024A136801331360704700BFECA6012071
:1038C000014B1868704700BF70A70120F8B5524B34
:1038D0001B68002B40F09980504B1C6801341C6021
:1038E000C4B94F4B1B681B6843B14FF0500383F3BF
:1038F0001188BFF36F8FBFF34F8FFEE7484A1168FF
:10390000484B186810601960474A13680133136008
:10391000FFF7C0FD454B1B68A34211D90020444B63
:103920001B68DB6A03EB83039A00424B9B58012B15
:1039300000D90120404B1B68002B6BD0012069E0AF
:10394000002037E0394B4FF0FF321A60E7E7374B82
:103950001A60E4E7D968516042E000219962116879
:1039600001391160DA6A01219140344E37683943D8
:103970003160304902EB82024FEA820C8C44DCF861
:1039800004209A609668DE6075609560DA6A02EBE2
:10399000820C4FEA8C054E195E614D5901354FEA94
:1039A0008C0C41F80C50DA6A214B1B68DB6A9A4296
:1039B00000D901201A4B1B681B68002BC2D0184B82
:1039C0001B68DB68DB685A689442C0D35A699D68FB
:1039D000D968A9609D684D6051681D1DA942B9D084
:1039E000002159611168013911609A6A002AB9D021
:1039F000DE69196AB160DE694E60566803F118012C
:103A00008E42AAD1196A5160A7E70D4A13680133A3
:103A100013600020F8BD00BFECA6012070A70120B4
:103A200078A601207CA6012028A7012024A7012038
:103A300074A6012080A6012074A70120F4A601200D
:103A40002CA7012038B54A4B1B6843B94FF05003EF
:103A500083F31188BFF36F8FBFF34F8FFEE7FFF73C
:103A6000C9F9434B1A68013A1A601B68002B7AD1D6
:103A7000404B1B683BB9002476E0196A516015E0A1
:103A8000D968516021E000233B4A1268002A47D0E0
:103A9000394BDB68DB689A6AD869196A8160D86932
:103AA0004860506803F118018842E6D0002199620D
:103AB0001168013911605A699868D96881609868FD
:103AC00048605168181D8142DAD00021596111689F
:103AD00001391160DA6A01219140284C2568294397
:103AE0002160274902EB820201EB820252689A6050
:103AF0009468DC6060609060DA6A02EB82008400A7
:103B000001EB80005861085901300851D96A1D4AFB
:103B10001268D26A9142B7D31B4A01211160B3E700
:103B20000BB1FFF7B7FC194B1C6884B9164B1C6826
:103B3000D4B14FF0E0234FF08052C3F8042DBFF30F
:103B40004F8FBFF36F8F01240EE0013C07D0FFF7CA
:103B5000BDFE0028F9D00C4B01221A60F5E70B4B93
:103B600000221A60E2E70024FFF766F9204638BD1C
:103B7000ECA60120E4A6012030A70120F4A6012034
:103B800080A6012074A6012074A701202CA7012083
:103B900010B5A8B10446104B1B6843B14FF0500359
:103BA00083F31188BFF36F8FBFF34F8FFEE7FFF7EB
:103BB0007FFE00212046FFF7A5FDFFF743FF48B930
:103BC0004FF0E0234FF08052C3F8042DBFF34F8F26
:103BD000BFF36F8F10BD00BFECA60120204B1B6808
:103BE0001BB1204B01221A6070471E4B00221A6045
:103BF0001D4B1B68B3FA83F3DBB2C3F11F0303EB66
:103C000083018A0019498A5842B94FF0500383F35F
:103C10001188BFF36F8FBFF34F8FFEE7134903EB9C
:103C2000830082000A4450684068506003EB830CB4
:103C30004FEA8C0208321144884209D003EB830317
:103C40009A000A4B13445B68DA68094B1A607047A4
:103C5000406862469100054A0A445060EEE700BFA2
:103C6000ECA6012074A70120F4A6012080A6012063
:103C700074A6012058B110B50C46094A11681831D4
:103C8000FFF7ECF901212046FFF73CFD10BD4FF096
:103C9000500383F31188BFF36F8FBFF34F8FFEE79D
:103CA00074A6012038B5D8B18C4611460546426845
:103CB000104B1868C261186894680462186818305C
:103CC00060601868183090601B689D622B68013333
:103CD0002B6009B14FF0FF3C6046FFF713FD38BD84
:103CE0004FF0500383F31188BFF36F8FBFF34F8FF3
:103CF000FEE700BF74A60120C368DB68002B4AD032
:103D000030B49A6AD869196A8160D8694860516884
:103D100003F11800814247D00021996211680139EE
:103D200011602B4A1268002A44D15A699868D968F0
:103D30008160986848605168181D814237D0002121
:103D40005961116801391160DA6A01219140214CF1
:103D5000256829432160204902EB820201EB82029F
:103D600052689A609468DC6060609060DA6A02EB86
:103D70008200840001EB800058610859013008512D
:103D8000DA6A164B1B68DB6A9A421FD90120144B72
:103D9000186030BC70474FF0500383F31188BFF3B5
:103DA0006F8FBFF34F8FFEE7196A5160B4E7D96890
:103DB0005160C4E70B4A5168D9618C681C6260602D
:103DC00088609A62116801311160D9E70020E0E74C
:103DD000ECA60120F4A6012080A6012074A60120F3
:103DE00074A7012030A70120034B1B680360034B1D
:103DF0001B684360704700BF28A7012070A70120FF
:103E0000F8B5B8B10C460546E9B1FEF7F3FF1C4B17
:103E100019686B68C81A2268B2F1FF3F2AD0194EA0
:103E200036682F68B74217D08B4215D8002323601D
:103E3000012420E04FF0500383F31188BFF36F8F0C
:103E4000BFF34F8FFEE74FF0500383F31188BFF3AA
:103E50006F8FBFF34F8FFEE7824203D800232360AA
:103E6000012408E05B1A134423602846FFF7BCFFD7
:103E7000002400E00024FEF7DFFF2046F8BD00BF6D
:103E800070A7012028A70120014B01221A6070476A
:103E900074A70120054B1B6833B1054B1B680BB1A0
:103EA00000207047022070470120704744A701207E
:103EB000ECA60120064B1A6813682BB90123036096
:103EC00023B9D368186870470023F8E700207047CB
:103ED00078A7012008B54160006191420CD8D21A40
:103EE00083699A4201D3012008BD011D094B18685E
:103EF000FFF7B4F80020F7E79A4201D2994206D2C0
:103F0000011D054B1868FFF7A9F80020ECE7012018
:103F1000EAE700BF7CA7012078A7012070B504461E
:103F20000D46164604E0A3691D44236A20469847BF
:103F3000A1692B46324629442046FFF7CBFF0028D3
:103F4000F1D170BD70B505460E460D4B1B68DB68A0
:103F5000DC68201DFFF79BF894F8283013F0040F5D
:103F600007D123F0010384F82830236A20469847BC
:103F700070BD324629462046FFF7D0FFF5E700BF67
:103F800078A7012008B505E0DB684FF0FF3118681D
:103F9000FFF7D8FF054B1B681A68002AF4D1044AC2
:103FA000106802490860136008BD00BF78A70120AF
:103FB0007CA7012038B50546FFF782FC0446074B75
:103FC0001B68834205D800232B60044B1C602046ED
:103FD00038BDFFF7D7FF01232B60F6E7A8A7012024
:103FE00070B582B006460C46FFF762FC01A8FFF7E9
:103FF000E1FF019B33BB05460CB9B04219D224B195
:10400000124A12681268DAB901242246711B104B59
:104010001868FFF715FAFFF715FDA8B94FF0E02370
:104020004FF08052C3F8042DBFF34F8FBFF36F8F53
:104030000AE0FFF707FD29463046FFF783FF03E05C
:104040001C46E2E7FFF7FEFC02B070BD7CA7012032
:10405000ACA7012030B585B0002201A9384B186803
:10406000FFF70FF9002869D0019B002BF4DB039CBC
:10407000636913B1201DFFF70AF86846FFF79AFF3E
:104080000546019B013B082BE6D8DFE803F0050558
:10409000293049050529300094F8283043F0010300
:1040A00084F82830029BA169024619442046FFF794
:1040B00011FF0028D0D094F8283013F0040F07D156
:1040C00023F0010384F82830236A20469847C3E789
:1040D000A3692A46029919442046FFF71FFFF3E718
:1040E00094F8283023F0010384F82830B4E794F8DA
:1040F000283043F0010384F828300299A16131B1DE
:104100000346024601442046FFF7E4FEA4E74FF0D1
:10411000500383F31188BFF36F8FBFF34F8FFEE718
:1041200094F8283013F0020F04D023F0010384F830
:10413000283091E72046FEF7B7FD8DE705B030BD8A
:10414000ACA7012000B583B001A8FFF7B3FE019929
:10415000FFF746FFFFF77EFFF6E7000038B5FEF7F2
:1041600049FE0F4B1B6813B1FEF766FE38BD0D4DBF
:104170002846FEF765FF0C4C2046FEF761FF0B4B0F
:104180001D600B4B1C6000220C210A20FFF74EF82B
:10419000034B18600028E7D00649FFF721F9E3E751
:1041A000ACA7012080A7012094A7012078A70120B7
:1041B0007CA70120786D000800B583B0FFF7CEFF23
:1041C0000D4B1B685BB10D4B019302230093002341
:1041D0004FF480720A490B48FFF7EEFA40B94FF0EE
:1041E000500383F31188BFF36F8FBFF34F8FFEE748
:1041F00003B05DF804FB00BFACA70120B0A701200D
:10420000806D00084541000808B5062000F0D0FC8C
:10421000012002F089FD000070B50D4D0D4C641BAE
:10422000A4100026A64209D10B4D0C4C02F07EFDD5
:10423000641BA4100026A64205D170BD55F8043BAE
:1042400098470136EEE755F8043B98470136F2E708
:10425000FC720008FC720008FC7200080073000881
:104260000A44914200F1FF3300D1704710B511F8B4
:10427000014B03F8014F9142F9D110BD02440346AE
:10428000934200D1704703F8011BF9E72DE9FF477E
:1042900055EC104B002D0E4619462B46BBBF05F1C1
:1042A00000431D4600232D230B700D9BDDF830A02D
:1042B000914623F02008BCBF22461446B8F1460FB1
:1042C00005D0B8F1450F00D10136022100E00321ED
:1042D00003AB019302AB009345EC104B53463246BF
:1042E00000F00EFDB8F1470F074602D119F0010F9B
:1042F00022D0B8F1460F07EB060910D13B78302BDE
:104300000AD10022002320462946FDF70DFD18B9E9
:10431000C6F10106CAF80060DAF8003099440022BC
:10432000002320462946FDF7FFFC08B1CDF80C908C
:104330003022039B4B4507D3039B0E9ADB1B384669
:10434000136004B0BDE8F087591C03911A70F0E7C0
:10435000F7B503460029B8BF494203F8022BB4BFA2
:104360002D222B22092942702ADD0DF10704A446D3
:104370000A27A6460A4691FBF7F607FB16153035C5
:10438000632A04F1FF340EF8015C3146F1DC303170
:10439000AEF1020504F8011C441C294661450AD30C
:1043A0000DF10902A2EB0E02654588BF00221344FD
:1043B000181A03B0F0BD11F8012B04F8012FEDE736
:1043C000302330318370C170031DF1E72DE9F04FC8
:1043D0002DED028B8DB00C46DDF8608016461F4631
:1043E000054601F07BFAD0F800A05046FDF71CF816
:1043F00000230A9323680593D8F8003094F818B086
:10440000073323F0070303F10802C8F80020D3E9BB
:104410000023C4E91223D4E9128929F00043079349
:10442000CDF8188008EE100A9F4BDDE906014FF029
:10443000FF32FDF7ABFC88BBDDE906019A4B4FF07C
:10444000FF32FDF785FC48BB002200234046494669
:10445000FDF774FC10B12D2384F84330934B94483E
:10446000BBF1470F94BF9846804603232361059B09
:1044700023F0040222604FF00009009733460BAA94
:104480002146284600F0D8F9013040F090804FF0E6
:10449000FF300DB0BDEC028BBDE8F08F42464B46BD
:1044A00040464946FDF772FC40B14B46002BBCBF6D
:1044B0002D2384F843307F487F4BD1E763680BF0AE
:1044C000DF0206925A1C3FD106236360059B616898
:1044D00043F48062002303930AABCDE901B309AB37
:1044E00049EC108B009322600DF123032846FFF75F
:1044F000CDFE069B0999472B804608D1C81C02DBDC
:104500006368994241DDABF1020B5FFA8BFBBBF1B3
:10451000650F20D801395A4604F150000991FFF780
:1045200017FF0A9A1318012A8146236102DC2268C8
:10453000D20701D5013323619DF82330002B9CD095
:104540002D2384F8433098E7069A472ABED1002BE2
:10455000BCD10123B9E7BBF1660F18D1002963680C
:104560000BDD216113B92268D00702D501330B445A
:104570002361A1654FF00009DEE713B92268D20775
:1045800001D50233F4E70123F2E74FF0670B0A9BF2
:10459000994205DB23682161D807EAD54B1CE7E780
:1045A0000029D4BFC1F1020201221344E0E72368CD
:1045B0005A0507D42369424631462846B847013098
:1045C0002CD164E7BBF1650F40F2E080D4E9120121
:1045D00000220023FDF7A8FB002834D0374A01232E
:1045E00031462846B84701303FF451AFDDE9092391
:1045F0009A4202DB2368D80710D518EE103A5246CB
:1046000031462846B84701303FF441AF4FF000082B
:1046100004F11A090A9B013B434509DC23689B0707
:1046200000F10581E0680B9B9842B8BF184630E75F
:1046300001234A4631462846B84701303FF427AFA8
:1046400008F10108E6E7099B002B39DC1B4A01232E
:1046500031462846B84701303FF419AFDDE9092358
:10466000134302D12368D907D8D518EE103A524621
:1046700031462846B84701303FF409AF4FF00009F2
:1046800004F11A0A099B5B424B4501DC0A9B92E745
:104690000123524631462846B84701303FF4F7AE71
:1046A00009F10109EEE700BFFFFFEF7F8C6D000805
:1046B000906D0008986D0008946D00089C6D0008CE
:1046C0000A9AA36D9A42A8BF1A46002A914637DC7F
:1046D0004FF0000B29EAE97904F11A02A36D059362
:1046E000A3EB09035B4533DCDDE909239A423BDB9D
:1046F0002368DA0738D40A9B059A09999A1AA3EB1A
:1047000001099145A8BF9146B9F1000F35DC4FF082
:10471000000829EAE97904F11A0ADDE909239B1A5C
:10472000A3EB090343457FF779AF01235246314696
:104730002846B84701303FF4AAAE08F10108ECE77B
:104740001346314642462846B8470130C0D19EE65E
:104750000123314628460592B84701303FF497AE11
:10476000059A0BF1010BB9E718EE103A52463146A3
:104770002846B8470130BED189E6059A4B464244E7
:1047800031462846B8470130C1D180E60A9A012A4D
:1047900001DCDB0738D50123424631462846B847BD
:1047A00001303FF474AE18EE103A524631462846B6
:1047B000B84701303FF46BAED4E912010022002368
:1047C000FDF7B2FAD8B90A9B08F10102013B314664
:1047D0002846B84701300ED159E6012352463146EA
:1047E0002846B84701303FF452AE08F101080A9B51
:1047F000013B4345F1DC4B4604F15002DCE64FF04F
:10480000000804F11A0AF2E701234246DFE7012318
:104810004A4631462846B84701303FF438AE08F1E1
:104820000108E3680B995B1A4345F0DCFAE64FF0A8
:10483000000804F11909F4E72DE9F04716469946F6
:104840008A680B69DDF820809342B8BF1346336055
:1048500091F8432007460C460AB1013333602368C0
:10486000990642BF336802333360256815F00605A8
:1048700006D104F1190AE36832689B1AAB4226DCC0
:1048800094F84320131E226818BF012392062BD4EC
:1048900004F1430249463846C04701301ED0236820
:1048A000E568326803F00603042B08BFAD1AA3685D
:1048B00022690CBF25EAE57500259342C4BF9B1A07
:1048C000ED1800261A34B5421AD1002008E0012361
:1048D000524649463846C047013003D14FF0FF30B9
:1048E000BDE8F0870135C6E7E1185A1C302081F891
:1048F0004300224494F8451082F843100233C7E77E
:104900000123224649463846C0470130E6D00136E9
:10491000D9E700002DE9FF470F7E0C9D782F9146C7
:1049200080460C469A4601F1430207D8622F0AD806
:10493000002F00F0D880582F00F0A38004F142052A
:1049400084F842703AE0A7F16303152BF6D801A171
:1049500051F823F0AD490008C14900083D4900085D
:104960003D4900083D4900083D490008C14900088B
:104970003D4900083D4900083D4900083D490008FF
:10498000CD4A0008F1490008AF4A00083D49000837
:104990003D490008EF4A00083D490008F149000878
:1049A0003D4900083D490008B74A00082B681A1D18
:1049B0001B682A6004F1420584F842300123A3E019
:1049C00020682968060601F104030AD50E682B60E9
:1049D000002E03DA2D23764284F843305E480A2302
:1049E00019E00E682B6010F0400F18BF36B2EFE7E9
:1049F0002B682068191D2960010601D51E6802E098
:104A00004606FBD51E8854486F2F0CBF08230A2387
:104A1000002184F843106568A560002DA2BF2168BD
:104A200021F0040121600EB9002D4DD01546B6FBD2
:104A3000F3F103FB1167C75D05F8017D3746BB4203
:104A40000E46F4D9082B0BD12368DE0708D523695D
:104A500061689942DEBF302305F8013C05F1FF355E
:104A6000521B2261CDF800A04B4603AA21464046C6
:104A7000FFF7E2FE01304CD14FF0FF3004B0BDE84B
:104A8000F087354881F845702968236851F8046B30
:104A900029601D0614D5DF0744BF43F020032360BF
:104AA0001EB9236823F0200323601023B0E7236896
:104AB00043F0200323607823284884F84530E3E757
:104AC000590648BFB6B2E6E71546BBE72B6826682D
:104AD0006169181D286035061B6801D5196002E060
:104AE0007006FBD51980002323611546BAE72B68B1
:104AF0001A1D2A601D68626800212846FCF7A0FC88
:104B000008B1401B606063682361002384F8433070
:104B1000A8E723692A4649464046D0470130ABD032
:104B200023689B0713D4E068039B9842B8BF1846DC
:104B3000A4E70123324649464046D04701309BD086
:104B40000135E36803995B1AAB42F2DCEBE7002521
:104B500004F11906F5E700BF9E6D0008AF6D00086F
:104B60001F2938B504460D4604D9162303604FF0BB
:104B7000FF3038BD426C12B152F821304BB920469B
:104B800000F030F82A4601462046BDE8384000F0E3
:104B900017B8012B0AD0591C03D11623036001203A
:104BA000E7E7002442F82540284698470020E0E740
:104BB000024B01461868FFF7D3BF00BF1800002062
:104BC00038B5074D00230446084611462B6002F015
:104BD0007DF8431C02D12B6803B1236038BD00BFB0
:104BE000BCA7012002F062B82DE9F74F03690C69F8
:104BF000A3420746C0F28180013C01F1140800F194
:104C0000140505EB8403019358F8243055F824204B
:104C100001339A424FEA840B08EB8409B2FBF3F6A6
:104C200031D34FF0000E4046AC46F24650F8042B0C
:104C300093B206FB03E34FEA134E9BB2AAEB0303C6
:104C4000DCF800A0120C13FA8AF306FB02E20093D0
:104C5000009B4FEA124E92B2C2EB1A4202EB234281
:104C6000BDF80030814543EA02434CF8043B4FEA6B
:104C7000224ADBD255F80B302BB9019B043B9D42F5
:104C80001A462ED33C61384601F0B6F8002824DBE2
:104C9000013628464FF0000C58F8042BD0F800E0FD
:104CA00093B2ACEB0303120C13FA8EF3C2EB1E4269
:104CB00002EB23429BB243EA0243C14540F8043B66
:104CC0004FEA224CE8D255F8242005EB840322B9A0
:104CD000043B9D421A460AD33C61304603B0BDE80E
:104CE000F08F1268043B002ACCD1013CC7E7126860
:104CF000043B002AF0D1013CEBE70020EEE7000086
:104D00002DE9F04F2DED048B57EC106B93B0456AF5
:104D1000DDF88080069110EE10AA044609920C93EB
:104D2000BB4675B9102000F0DDFD0246606220B977
:104D3000A74BEA21A74801F067FAC0E901550560D1
:104D4000C560636A196851B15A684A60012393408B
:104D50008B60204600F00EFE636A00221A603B1E44
:104D6000AABF002323F0004BC8F800309A4BBCBF09
:104D70000122C8F8002033EA0B031BD10C9A42F23F
:104D80000F731360CBF31303334300F09285219B21
:104D900063B9924B22E0924B01930833219A13603E
:104DA000019813B0BDEC048BBDE8F08F8B4B0193E1
:104DB0000333F3E70022002350465946FCF7B4FFC3
:104DC0004BEC19AB804658B10C9A01231360219B20
:104DD000002B00F06B8583481860431E0193DFE7CA
:104DE0004BEC10AB10AA11A9204601F0ABF8CBF3A5
:104DF0000A5508EE100A002D00F0848019EE903A52
:104E0000C3F3130343F07F57564647F44017A5F208
:104E1000FF35CDF83880744B002230463946FCF718
:104E200063FB65A3D3E90023FCF716FD64A3D3E974
:104E30000023FCF75BFB064628460F46FCF7A2FC66
:104E400061A3D3E90023FCF707FD02460B46304679
:104E50003946FCF74BFB06460F46FCF7ADFF002238
:104E60000090002330463946FCF768FF50B10098A7
:104E7000FCF788FC32463B46FCF756FF10B9009B16
:104E8000013B0093009B162B5AD8009A574B03EB1B
:104E9000C203D3E9002351EC190BFCF74FFF0028A4
:104EA00050D0009B013B009300230B93109B5D1B94
:104EB0006B1E059345BFC5F1010304930023002336
:104EC0004CBF05930493009B002B3DDB059B009A90
:104ED0000A921344059300230793069B092B00F2C3
:104EE0008980052BC4BF043B0693069BA3F10203F4
:104EF000CCBF00250125032B00F28780DFE803F0FB
:104F00002D3A3859DDE910531D4405F23243202B68
:104F1000C1BFC3F1400305F212400BFA03F326FAB6
:104F200000F0DABFC3F1200306FA03F01843FCF7E0
:104F300019FC01230646A1F1F877013D0E936AE7BB
:104F40000123B2E70B90B1E7049B009A9B1A0493EC
:104F50005342079300230A93BFE700230893099B5A
:104F6000002B55DC0123CDE902331A4609920CE0EF
:104F70000123F3E70023099A0893009B134402934B
:104F80000133012B0393B8BF0123606A0022426002
:104F9000042202F114069E4241683DD9204600F0E9
:104FA000A9FC019000283BD1114B02464FF4D5716A
:104FB000C0E60123DFE700BF61436F63A787D23FED
:104FC000B3C8608B288AC63FFB799F501344D33FF8
:104FD000CD6D0008E46D00080000F07FC96D000889
:104FE000C06D00089D6D00080000F83F206F0008AC
:104FF000626E000801250023069308954FF0FF33E9
:10500000CDE9023300221223B0E701230893F5E72C
:10501000099BCDE90233B8E7013141605200B8E79E
:10502000636A019A1A60039B0E2B00F29D80002D8B
:1050300000F09A80009B002B32DDB74A03F00F038B
:1050400002EBC303D3E90089009BD8054FEA23177D
:1050500016D5B24B51EC190BD3E90823FCF726FD0A
:1050600007F00F0782468B460325AC4E57B94246E0
:105070004B4650465946FCF719FD82468B4628E0C0
:105080000225F2E7F90708D540464946D6E900234C
:10509000FCF7E2FB0135804689467F100836E5E7DC
:1050A00000F09B80009B9D4F5E429B4B06F00F02E1
:1050B00003EBC203D3E9002351EC190BFCF7CCFB43
:1050C000361182468B4600230225002E7AD1002B12
:1050D000D3D10B9B002B00F08280914B00225046D5
:1050E0005946FCF72BFE002879D0039B002B76D085
:1050F000029B002B36DD009B504659465F1E002266
:10510000884BFCF7A9FB029E82468B460135284658
:10511000FCF738FB52465B46FCF79EFB824B0022B5
:10512000FCF7E4F9D046D9468246A1F1507B002E27
:1051300058D17E4B002240464946FCF7D5F95246ED
:105140005B4680468946FCF717FE002840F09582B2
:1051500052460BF1004340464946FCF7EFFD00285C
:1051600040F089825BEC19AB119B002BC0F24881A7
:10517000009A0E2A00F34481674B03EBC203D3E984
:105180000089099B002B80F2D580039B002B00F344
:10519000D18040F06F82654B002240464946FCF7C3
:1051A0005BFB52465B46FCF7DDFD039E374600285D
:1051B00040F04582019D312305F8013B009B0133FE
:1051C000009340E2F20705D5D7E90023FCF744FB42
:1051D000013501237610083777E7022579E7009F2C
:1051E000039E94E701994C4B31440D91089903EBD0
:1051F000C60353E90223002943D04D490020FCF7A0
:1052000055FC52465B46FCF76FF9019D82468B4682
:1052100049464046FCF7D0FD0646FCF7B3FA024685
:105220000B4640464946FCF75FF9303605F8016BFE
:1052300052465B4680468946FCF780FD002863D1D4
:1052400042464B4636490020FCF74EF952465B4633
:10525000FCF774FD002840F0B5800D9B9D4281D085
:10526000304B002250465946FCF7F6FA2D4B824649
:105270008B46404649460022FCF7EEFA80468946B6
:10528000C6E750465946FCF7E7FA0D9B019D0F9380
:1052900082468B4649464046FCF78EFD0646FCF7A3
:1052A00071FA303602460B4640464946FCF71CF977
:1052B00005F8016B0D9B9D42804689464FF0000228
:1052C00024D11B4B50465946FCF710F902460B46B9
:1052D00040464946FCF750FD002873D152465B46D4
:1052E00013490020FCF700F902460B4640464946A8
:1052F000FCF724FD00283FF435AF0F9D6B1E0F9384
:1053000015F8013C302BF8D0009749E0054BFCF72D
:10531000A3FA80468946BDE7206F0008F86E0008B2
:105320000000F03F0000244000001C40000014403A
:105330000000E03F019D56465F4642464B463046E0
:105340003946FCF7B3FBFCF737FD8246FCF71AFA47
:1053500042464B46FCF780FA02460B463046394639
:105360000AF13006FCF7C0F805F8016B019E039FB7
:10537000AE1BB74202460B4635D1FCF7B7F84246A2
:105380004B4606460F46FCF7F7FCD0B942464B4663
:1053900030463946FCF7C8FC10B11AF0010F10D1A5
:1053A000204618EE101A00F0E5FA002300982B7042
:1053B0000C9B01301860219B002B3FF4F1AC1D6069
:1053C000EEE4009F2B461D4613F8012D392A06D125
:1053D000019A9A42F7D10199302201370A701A785E
:1053E00001321A7090E7A64B0022FCF735FA002232
:1053F000002306460F46FCF797FC00289DD0CFE718
:10540000089A002A00F0D780069A012A00F3BA8091
:105410000E9A002A00F0B28003F23343079E049DE7
:10542000049A1A440492059A01211A4420460592CE
:1054300000F058FB0746002D0CDD059B002B09DD15
:10544000AB42049AA8BF2B46D21A0492059AED1AD1
:10545000D31A0593079B1BB3089B002B00F0AF806A
:10546000002E13DD39463246204600F0FBFB18EED5
:10547000102A01460746204600F04AFB18EE101A93
:105480008046204600F076FA08EE108A079B9A1BA9
:1054900006D018EE101A204600F0E4FB08EE100AC1
:1054A0000121204600F01EFB0A9B002B064640F31C
:1054B00088801A460146204600F0D4FB069B012B4B
:1054C000064640F381804FF00008336906EB830302
:1054D000186900F0B7FAC0F12000059B184410F0DD
:1054E0001F0000F09280C0F12003042B40F38A805B
:1054F000C0F11C00049B03440493059B0344054432
:105500000593049B002B07DD18EE101A1A4620465F
:1055100000F002FC08EE100A059B002B05DD314669
:105520001A46204600F0F8FB06460B9B002B6ED077
:1055300018EE100A314600F05FFC002867DA009B85
:10554000013B18EE101A00930A220023204600F0B7
:1055500033FA089B08EE100A002B00F0B1810023FB
:1055600039460A22204600F027FA029B002B074604
:1055700000F38E80069B022B51DC89E0109BC3F167
:1055800036034BE7039B5E1E079BB342BFBF079BDF
:105590000796F21A0A9BB6BF9B189E1B0A93039BA1
:1055A000B8BF0026002BB7BFDDE90323DDE90335D3
:1055B0009D1A002334E7079E049D089F3BE7079A46
:1055C00067E7069B012B18DCBAF1000F15D1CBF36E
:1055D000130393B92BF000431B0D1B0583B1049BF0
:1055E00001330493059B013305934FF001080A9B97
:1055F000002B7FF46AAF01206FE74FF00008F6E759
:105600009846F4E73FF47DAF18461C3072E7039BE1
:10561000002B37DC069B022B34DD039B0293029B9D
:105620006BB931460522204600F0C6F90146064610
:1056300018EE100A00F0E0FB00283FF7BBAD099B15
:10564000019DDB4300934FF000083146204600F0F7
:1056500091F9002F3FF4A4AEB8F1000F05D0B84582
:1056600003D04146204600F085F93946204600F037
:1056700081F995E600263746E1E70097374699E538
:1056800000002440089B002B00F0CA80039B02937B
:10569000002D05DD39462A46204600F03DFB074631
:1056A000B8F1000F5BD07968204600F023F9054679
:1056B00028B9874B024640F2EA21FFF73BBB3A6923
:1056C0000232920007F10C010C30FEF7C9FD0122F5
:1056D0002946204600F020FB019B03F10109DDE98A
:1056E0000123134405930AF00103B84604930746C7
:1056F000314618EE100AFFF777FA4146029000F1A2
:10570000300A18EE100A00F077FB3A460390314653
:10571000204600F08DFBC26809F1FF3B054602BB45
:10572000014618EE100A00F067FB024629462046A3
:10573000079200F01FF9DDE9063243EA0201049BFB
:105740000B434D460FD1BAF1390F2AD0039B002BE2
:1057500002DD029B03F1310A8BF800A075E73846A1
:10576000BAE70122E2E7039B002B04DB06990B4317
:1057700004990B4322D1002AEEDD18EE101A012203
:10578000204600F0C9FA314608EE100A00F034FB5A
:10579000002803DCE0D11AF0010FDDD0BAF1390F97
:1057A000D7D139238BF800302B461D46013B15F825
:1057B000012C392A71D001321A7046E7002A07DD20
:1057C000BAF1390FEDD00AF101038BF800303CE754
:1057D000059B09F801AC994547D018EE101A002333
:1057E0000A22204600F0E8F8B84508EE100A4FF00B
:1057F00000034FF00A024146204606D100F0DCF8D3
:105800008046074609F1010972E700F0D5F83946EC
:10581000804600230A22204600F0CEF80746F1E732
:10582000039B0293019D18EE100A3146FFF7DCF945
:1058300000F1300A019B05F801ABEA1A029B934282
:1058400009DD18EE101A00230A22204600F0B4F8F1
:1058500008EE100AE7E7029B002BC8BF1D46019B1C
:10586000D8BF01251D444FF0000818EE101A012280
:10587000204600F051FA314608EE100A00F0BCFA5A
:10588000002891DC02D11AF0010F8DD12B461D4664
:1058900013F8012D302AFAD0D7E6019A9A4284D122
:1058A000009B0133009331231370CEE6094BFFF7C1
:1058B00095BA219B002B7FF46EAA074BFFF78EBA97
:1058C000029B002BAEDC069B022B3FF7A8AEA9E79C
:1058D000626E00089C6D0008C06D000800487047AB
:1058E0006C010020024B0146186800F009BC00BFA3
:1058F0001800002070B5466A04460D4676B910209F
:10590000FFF7F0FF0246606220B9184B1848662185
:1059100000F07AFCC0E901660660C660666AF3685A
:1059200083B1636ADB6853F82500B8B9012101FA35
:1059300005F6721D9200204600F060FB60B1C0E9E0
:1059400001560EE021220421204600F057FB636A35
:10595000F060DB68002BE4D1002070BD026843F8E2
:1059600025200023C0E90333F7E700BFCD6D000811
:10597000736E000870B5466A05460C4676B910206D
:10598000FFF7B0FF0246686220B9094B09488A2137
:1059900000F03AFCC0E901660660C6603CB16B6A83
:1059A0006268DB6853F82210216043F8224070BD22
:1059B000CD6D0008736E00082DE9F0410D690746B2
:1059C0000C461E4601F1140C0020DCF8003099B2A0
:1059D00002FB01611E0C0B0C02FB063389B2013085
:1059E00001EB034185424CF8041B4FEA1346ECDC03
:1059F0000EB3A368AB4219DC616838460131FFF78A
:105A000079FF804628B902460C4B0D48B52100F0BD
:105A1000FBFB2269023204F10C0192000C30FEF70C
:105A20001FFC21463846FFF7A5FF444604EB8503DB
:105A300001355E6125612046BDE8F081626E000897
:105A4000736E0008030C1B04D3B90004102310F07C
:105A50007F4F04BF0002083310F0704F04BF0001F5
:105A6000043310F0404F04BF80000233002805DBF0
:105A700010F0804F03F1010308BF20231846704740
:105A80000023E4E7036813F0070201460BD0DA07AE
:105A900023D4980749BF5B089B0801200B605CBFBB
:105AA0000B600220704798B2A8B91B0C1020DAB224
:105AB0000AB908301B0A1A0704BF1B0904309A07E9
:105AC00004BF9B080230DA0703D45B0800F1010031
:105AD00005D00B6070471046E9E700207047202092
